:020000040800F2
:10000000A81F002001010008F31F0008651D00085B
:10001000F11F000817090008592600080000000019
:100020000000000000000000000000008321000824
:10003000ED0A000800000000812100088521000869
:100040001B0100081B0100081B0100081B01000820
:100050001B0100081B0100081B0100081B01000810
:100060001B0100081B0100081B0100081B01000800
:100070001B0100081B0100081B0100081B010008F0
:100080001B0100081B0100081B0100081B010008E0
:100090001B0100081B0100081B0100081B010008D0
:1000A0001B0100081B0100081B0100081B010008C0
:1000B000212200081B0100081B0100081B01000889
:1000C0001B0100081B0100081B0100081B010008A0
:1000D0001B010008412600081B0100084D260008EE
:1000E0001B0100081B0100081B010008DFF80CD0F1
:1000F00000F0D0FB004800476D280008A81F002032
:100100000648804706480047FEE7FEE7FEE7FEE7B1
:10011000FEE7FEE7FEE7FEE7FEE7FEE7D92100087F
:10012000ED000008202A04DB203A21FA02F0002129
:10013000704721FA02F3D040C2F1200291400843F7
:1001400019467047D2B201E000F8012B491EFBD2DC
:1001500070470022F6E710B513460A4604461946D2
:10016000FFF7F0FF204610BDF0B480EA0102D40F83
:100170004200B2EB410F02D20246084611464A0045
:1001800042D0C30DDDB2C1F3C752AD1A202D35DA0E
:10019000C1F3160141F4000204B15242C5F1200638
:1001A00002FA06F12A411044B3EBD05F23D0C4B168
:1001B000012DA0EBC35009DCF0BC4FF0004202EA75
:1001C000C352DBB200F5000000F088BA400000F135
:1001D000807000EBC350A0F1807040EAD1704900FC
:1001E00009E0490841EAC071A0EBC35000F50000E6
:1001F000400800EBC350F0BC00F067BA6142012236
:1002000002EB4101001BF6E7F0BC704781F00041B2
:10021000AAE780F00040A7E780EA010210B502F0EB
:100220000043400022D04A001FD0010E01EB1261B2
:10023000C0F35600C2F3560240F4000042F400023C
:10024000A0FB022000047F39140400D0401C50EAB7
:10025000124001D44000491EC2B20C0604EBD0107B
:10026000401C4008802A02D003E0002010BD20F08E
:100270000100002900DA0020184310BD30B480EAE4
:10028000010202F0004530F0004221F0004013D09E
:1002900090B1C30DD40DC2F31601C0F31600E41AD9
:1002A00041F4000140F400027D34914201D3641C0A
:1002B00000E04900002C02DA30BC002070474FF407
:1002C00000000023914201D3891A034340084FEAFA
:1002D0004101F7D151B1914202D14FF0004105E007
:1002E00002D24FF0010101E06FF0010103EBC450B5
:1002F000284430BC00F0E9B9420005D0C0F3C75231
:100300005242914201DC0020704700EBC15070471F
:100310002DE9FE4F804681EA0300C00F0C46009095
:1003200021F0004123F00045B8EB0200A94105D2BD
:100330004046214690461C460B46024623F00040AC
:10034000104347D0270DC7F30A00C3F30A510290A8
:10035000401A019040286BDAC3F3130040F4801B6D
:100360000098924620B10023D2EB030A63EB0B0BFB
:1003700001985946C0F14002504600F085F9064602
:100380000D4650465946019A00F08DF910EB0800D1
:100390006141002487EA115284EAE7731A4340D08E
:1003A000009A62B3019A012A4FEA075215DC001B3A
:1003B00061EB02014FF0004202EA0752CDE9004230
:1003C000001C41F5801132462B4600F0C4F903B001
:1003D000BDE8F08F40462146F9E7001B61EB0201C2
:1003E000001C41F5801300185B412018A2F500178E
:1003F00047EB030140EAD570B6196D4111E06D0875
:100400004FEA360645EAC0754FEA0752001B61EB1A
:100410000201001C41F5801149084FEA3000001923
:10042000514132462B4603B0BDE8F04F00F084B98D
:100430000098012240000023D0EB020263EBE0733E
:10044000009821464FEAE074B8EB000061EB04012C
:10045000E9E783F000435BE781F0004158E72DE9CD
:10046000FE4F81EA030404F0004421F000410094AF
:100470004FF0000B23F0004350EA01045ED052EA33
:1004800003045BD0C3F30A54C1F30A552C44A4F20D
:10049000F3340194A0FB0254C1F3130141F4801121
:1004A000C3F3130343F4801301FB024400FB034E28
:1004B000840A970A44EA815447EA8357A4FB0768F1
:1004C00002958D0A05FB07854FEA932C04FB0C541B
:1004D0002705029D4FEA065847EA1637B5EB08058F
:1004E0006EEB070C870E920E47EA811742EA8312E1
:1004F000A7FB0201B6EB0B0164EB00042B0D43EAF2
:100500000C335E1844EB1C50DA465146E7FB0201FF
:10051000C5F313044FEA0B3343EA14534FEA043292
:10052000019C43EA0603A4F10C040294009CCDE96B
:1005300000B400F010F903B0BDE8F08F00200146D0
:10054000F9E7C10F80EAE0700844CA07962300214A
:1005500000F0C4B896230022114600F0BFB80EB5D3
:1005600040F2334102910021CDE900110A460B46C9
:1005700000F0F1F803B000BD20F00040C10DC0F361
:10058000160040F400007F2901DA00207047962908
:1005900003DCC1F19601C840704796398840704726
:1005A00000F0004230F000400AD0C10D01F560714A
:1005B000C0F3160042EA0151C208400711437047D8
:1005C000002001467047000030B5041E71F10004A0
:1005D00004DB4FF00044404264EB0101141E73F150
:1005E000000405DB1C464FF00043524263EB04035A
:1005F0008B4208BF824230BD30B5041E71F1000449
:1006000004DB4FF00044404264EB0101141E73F11F
:10061000000405DB1C464FF00043524263EB040329
:10062000994208BF904230BD01F0004330B421F040
:10063000004150EA010206D00A0DA2F56072C1F332
:100640001301002A02DC30BC00207047440F44EA4A
:10065000C104C100E01830BC00EBC25000F035B856
:10066000002801DBC0F10040002901DBC1F100419D
:1006700081427047002801DBC0F10040002901DB06
:10068000C1F1004188427047202A04DB203A00FA79
:1006900002F1002070479140C2F1200320FA03F3D9
:1006A000194390407047202A06DBCB17203A41FAC5
:1006B00002F043EAE07306E041FA02F3D040C2F1EF
:1006C000200291400843194670470029A8BF70478F
:1006D000401C490008BF20F00100704710B4B0FA78
:1006E00080FC00FA0CF050EA010404BF10BC704713
:1006F00049B1CCF1200421FA04F411FA0CF118BF2D
:10070000012121430843A3EB0C01CB1D4FEA0061FB
:100710004FEA102042BF002010BC704700EBC350CE
:1007200010440029A4BF10BC7047401C490008BFFA
:1007300020F0010010BC704710B5141E73F10004C6
:1007400008DA401C41F1000192185B411A4301D1C3
:1007500020F0010010BD2DE9F04D92469B4611B1ED
:10076000B1FA81F202E0B0FA80F220329046FFF74F
:100770008BFF04460F4640EA0A0041EA0B0153464C
:100780005A46084313D0114653EA010019D0C8F164
:1007900040025046FFF7C6FC05460E4650465946F5
:1007A0004246FFF771FF084305D0012004E02046D0
:1007B0003946BDE8F08D0020054346EAE0762C433B
:1007C00037430A986305E40AA0EB08000022FD0AFB
:1007D00044EA47540A3002D500200146E9E7010502
:1007E00010196941DDE9084500196941BDE8F04D7E
:1007F000A2E72DE9F04D00231A461B1A8A4103DBBC
:1008000000200146BDE8F08DC1F30A52C1F3130187
:1008100041F480154FF0000BD10702D100186D4153
:10082000521E0027044640F2FF11384601EB620ACF
:100830003E468046024600204FF48011FFF772FCCE
:10084000C2197141BB1846EB0100B4EB030C75EB08
:10085000000C04D3E41A65EB000517460E46241974
:1008600008F101006D4180463428E3DDF91946EBBB
:100870000600091BA84103D24FF0FF32134601E0E6
:10088000002213461BEB070046EB0A51BDE8F04D72
:10089000FFF752BF064C074D06E0E06840F0010349
:1008A00094E8070098471034AC42F6D3FFF722FCD7
:1008B000DC2F0008FC2F000870B58D1810F8014BD4
:1008C00014F0030201D110F8012B231106D110F806
:1008D000013B03E010F8016B01F8016B521EF9D1E6
:1008E000ABB110F8012B04F00C048A1A0C2C03D0C5
:1008F000A2EB84129B1C08E010F8014BA2EB04222F
:10090000F8E712F8014B01F8014B5B1EF9D5A9423B
:10091000D4D3002070BDFEE71FB51B4903280BD0C0
:100920001A4A4A6201F180040A61062820D2DFE8EF
:1009300000F01F0D1106152000204862086104B068
:100940000020BDE81040124901F0E2BE086FA0602F
:10095000486F0CE0BDE81F4002F0D6B9D4E914019D
:10096000FFF762FEA060D4E91601FFF75DFEE060CC
:100970001FBD0948074A0092CDE901200346014600
:10098000039202F021FA1FBD000000206F12833A8B
:100990000000594000007A43000048420A2839D834
:1009A00090B31D4924220B280A7033D2DFE800F0EF
:1009B00032060A0E12161A1E22272D000520487133
:1009C00006207047092048720A2070470D2048739E
:1009D0000E2070471120487412207047152048756A
:1009E00016207047192048761A2070471D20487736
:1009F0001E207047212081F82100222070472520E9
:100A000081F825002620704704E0292081F829007C
:100A10002A20F8E70020F6E79817002003B50A29F6
:100A200012D8002910D00B290ED2DFE801F00D06F4
:100A3000080E10121416181A1C00012200E00522DC
:100A40000A49684600F054F80CBD0922F8E70D2267
:100A5000F6E71122F4E71522F2E71922F0E71D224A
:100A6000EEE72122ECE72522EAE7000098170020B4
:100A700010B51B4C0121A068FFF7D0FFD4E910018D
:100A8000FFF7D2FD0221FFF7C9FF0321E068FFF75E
:100A9000C5FFD4E91201FFF7C7FD0421FFF7BEFF30
:100AA00005212068FFF7BAFF06216068FFF7B6FF4F
:100AB000D4E91801FFF7B8FD0721FFF7AFFF206B5E
:100AC000FFF73FFD0821FFF7A9FF0820FFF766FFAA
:100AD0000246BDE810400349034801F0D9B80000C0
:100AE0008000002098170020241B002070477047CA
:100AF00003788B54114443784B7082788A70C078A5
:100B0000C870704710B590F821100024022903D056
:100B10000421816301243DE001680A6822F00E028D
:100B20000A6001680A6822F001020A601A4A016834
:100B3000914201D1012121E0174A1432914201D1A1
:100B400010211BE0144A2832914201D1891515E089
:100B5000114A3C32914201D189140FE00E4A5032C1
:100B6000914202D14FF4803108E00B4A6432914245
:100B700002D14FF4801101E04FF08071064A083A2B
:100B80005160012180F82110002180F82010416B74
:100B900001B18847204610BD080002402DE9F84FFA
:100BA000DFF8B891002409F1040A0AF1040B234686
:100BB0000F270BF1040EC9E00125A5402A40AA42E7
:100BC0007DD1674ED1F804C0ACEB0608B44532D0F5
:100BD00014DCBCF1030F3AD009DCBCF1000F2AD0C1
:100BE000BCF1010F1CD0BCF1020F31D11DE0BCF1F2
:100BF000110F17D0BCF1120F2AD119E0B8F5881FD8
:100C000019D006DCB8F5803F15D0B8F5801F1FD18C
:100C100011E0B8F5001F0ED0B8F5041F18D10AE096
:100C2000CB6815E0CB681B1D12E0CB6808330FE0E2
:100C3000CB680C330CE08B682BB1012B4FF0080311
:100C400003D0456104E0042302E0056100E00023D5
:100C5000FF2A01D8064601E000F104064FEA8405A8
:100C600001D9A5F12005D6F8008007FA05FC28EA8D
:100C70000C0803FA05F548EA0508C6F800804D6837
:100C8000ED0062D5374DAE6946F00106AE61AD6943
:100C900024F0030605F001050095334D06EB050C25
:100CA000DCF80850A607360F07FA06F825EA08050B
:100CB000DFF8B880404503D14FF0000817E044E06A
:100CC000DFF8AC80404502D14FF001080FE0DFF8BB
:100CD000A480404502D14FF0020808E0DFF8988078
:100CE000404502D14FF0030801E04FF0040808FA34
:100CF00006F848EA0508CCF808804D68D9F8006085
:100D0000ED034D4601D5164300E096432E604D6835
:100D1000DAF80060AD03554601D5164300E096436E
:100D20002E604D68DBF80060ED025D4601D516438C
:100D300000E096432E604D68DEF80060AD02754617
:100D400001D5164300E096432E60641C0D682A46C8
:100D5000E5407FF431AFBDE8F88F000000040140AA
:100D60000000111000100240000001400008014086
:100D7000000C01400010014000140140C2680A420A
:100D800001D041617047016170470AB1016170474C
:100D90000904FBE7014880687047000084170020C1
:100DA00002488168027811448160704784170020EE
:100DB000074810B5016841F010010160032000F000
:100DC00075F8002000F006F800F024F8002010BDAF
:100DD0000020024070B50D4D04464FF47A7128781A
:100DE000B1FBF0F00A490968B1FBF0F000F0ECFA51
:100DF00048B9102C07D200222146501E00F036F8C8
:100E000000206C6070BD012070BD000084170020C0
:100E1000901700200C4808B5816941F001018161FB
:100E2000816901F001010091C16941F08051C16106
:100E3000C06900F0805000900448416821F0E061F2
:100E400041F00071416008BD001002400000014007
:100E5000002809DB00F01F020121914040098000B9
:100E600000F1E020C0F8001170470000F0B40E4B14
:100E70001B680C46C3F30223C3F10705042D00D9F8
:100E80000425191D072901D2002300E0DB1E0126DD
:100E900006FA05F1491E214099409E40761E1640F3
:100EA0003143F0BC01F00EBC0CED00E0064900F04F
:100EB000070208684FF6FF03184040EA0220034A81
:100EC00010430860704700000CED00E00000FA05D8
:100ED0002DE9F0470F46050061D0434E306800F021
:100EE0000700B84209D2306820F00700384330606C
:100EF000306800F00700B84251D128683B4C8107A8
:100F000012D5400703D5606840F4E060606028783F
:100F1000000703D5606840F4605060606068A968AD
:100F200020F0F000084360602878C00728D0686887
:100F3000012810D02168022810D0890700292EDA54
:100F4000616821F0030101436160FFF723FF8046E0
:100F500041F288390DE021688903EFE78901EDE767
:100F6000FFF718FFA0EB0801494502D90320BDE8AF
:100F7000F0876068696800F00C00B0EB810FEFD17A
:100F8000306800F00700B8420BD9306820F0070045
:100F900038433060306800F00700B84201D00120CB
:100FA000E5E72878400705D56068E96820F4E06047
:100FB000084360602878000706D56068296920F436
:100FC000605040EAC100606000F038F86168084A8B
:100FD000C1F30311515CC840064908600648006827
:100FE000FFF7F8FE0020C2E7002002400010024098
:100FF000C42F0008901700208817002004480549D6
:1010000000684968044AC1F30221515CC840704736
:101010009017002000100240D42F00080448054912
:1010200000684968044AC1F3C221515CC840704756
:101030009017002000100240D42F000812A185B0A4
:101040000FC98DE80F0014A0144A0068049051687D
:10105000134801F00C03042B10D0082B0ED1C1F360
:101060008343C9031DF803000AD5516804AAC1F3DC
:101070004041515C0A4A5043B0FBF1F005B0704763
:1010800008494843FAE70000020304050607080977
:101090000A0B0C0D0E0F1010010200000010024090
:1010A00000127A0000093D002DE9F84F040070D0CD
:1010B0002078C04DC00749D06868C0F3810001287E
:1010C00007D06868C0F38100022809D16868C003AE
:1010D00006D52868800339D560680028E7D035E058
:1010E0006068B0F5803F0BD010B1B0F5A02F11D0E3
:1010F000286820F480302860286820F4802002E0EE
:10110000286840F480302860606890B1FFF742FEA4
:1011100006460AE0286840F480202860F0E700BF17
:10112000FFF738FE801B642873D828688003F7D542
:101130000CE0FFF72FFE064605E000BFFFF72AFE92
:10114000801B6428F0D828688003F7D420789A4E52
:1011500080074FF001094FF0000839D5686810F09A
:101160000C0F07D06868C0F38100022809D16868B5
:10117000C00306D42868800714D52069012808D147
:1011800010E02069B0B1C6F80090FFF703FE0746F3
:1011900005E00AE1FFF7FEFDC01B0228C4D828685D
:1011A0008007F7D52868616920F0F80040EAC1009F
:1011B00028600DE0C6F80080FFF7ECFD074604E06C
:1011C000FFF7E8FDC01B022823D828688007F7D462
:1011D000207800072CD57948A169D9B1C0F80090D2
:1011E000FFF7D8FD074604E0FFF7D4FDC01B022837
:1011F0000FD8686A8007F7D571484FF4FA51006834
:10120000B0FBF1F0009000BF0098411E0091FAD2AF
:101210000EE080E0C0F80080FFF7BCFD074604E068
:10122000FFF7B8FDC01B022875D8686A8007F7D49D
:101230002078400760D5E8690027C00008D4E86935
:1012400040F08050E861E869012700F0805000908C
:101250005C480168C90513D40168834641F4807174
:101260000160FFF797FD824606E000BFFFF792FDA1
:10127000A0EB0A0064284ED8DBF80000C005F5D5C5
:10128000E06801280AD008B1052813D0286A20F0A8
:1012900001002862286A20F0040002E0286A40F079
:1012A00001002862E06841F2883B98B1FFF772FDC7
:1012B00082460BE0286A40F004002862EEE700BF97
:1012C000FFF768FDA0EB0A0159455AD8286A800744
:1012D000F6D50CE0FFF75EFD824605E0FFF75AFD0C
:1012E000A0EB0A0159454CD8286A8007F6D41FB1F3
:1012F000E86920F08050E861E06988B36968C1F36B
:101300008101022944D00228C6F8608004D0FFF78A
:1013100041FD044638E034E0FFF73CFD074604E0B9
:10132000FFF738FDC01B02282BD828688001F7D4AE
:10133000206AB0F5803F05D16868A16820F40030CC
:1013400008436860D4E908010843696821F474110E
:1013500008436860C6F86090FFF71CFD044606E08D
:1013600025E000BFFFF716FD001B022809D82868FA
:101370008001F7D51BE000BFFFF70CFD001B022822
:1013800002D90320BDE8F88F28688001F4D40EE06C
:101390000128F7D06868226A00F48031914204D1B4
:1013A000616A00F47010884201D00120EAE7002051
:1013B000E8E7000000100240000042428004424280
:1013C000901700200070004010B5401EB0F1807FE3
:1013D00001D3012010BD4FF0E02460610F216017A0
:1013E00001F070F90020A06107202061002010BDED
:1013F0007047704710B590F83C20012A22D0012296
:1014000080F83C20CA688C6822F4407222434C6801
:1014100022F4806222430C6822F4006222430C69A9
:1014200022F4805222434C6922F400522243C969BB
:10143000002322F480420A4301684A6480F83C3069
:10144000002010BD022010BD70B590F83C20012A8C
:1014500019D0012400F83C4F0222427050F83C3C65
:101460005A689D6822F070060A684968324325F080
:10147000800529435A6050F83C2C9160447000214B
:101480000170084670BD022070BD10B5040003D085
:1014900094F83D0010B107E0012010BD002084F851
:1014A0003C00204600F00CF8022084F83D00211D8D
:1014B000206800F0BBFE012084F83D00002010BD34
:1014C00008B5174A01681748914207D1816941F46C
:1014D00000618161806900F400600CE0B1F1804F2F
:1014E0000BD0114A914207D1C16941F00401C16199
:1014F000C06900F00400009008BDC16941F001011D
:10150000C161C069002200F00100009011461C205A
:10151000FFF7ACFCBDE808401C20FFF799BC0000B9
:10152000002C014000100240000800400168CA6819
:1015300042F00102CA600068816801F007010629D3
:1015400003D0016841F0010101600020704770B5CF
:10155000044690F83C00012817D0012584F83C503F
:10156000022084F83D002068826822F0770222F48D
:101570007F4282600868502830D00DDC20284DD092
:1015800005DC98B310283BD148E0022070BD30281C
:1015900044D0402834D139E0602828D0702806D0C3
:1015A000B0F5805F2CD0B0F5005F29D10AE0CB68A0
:1015B000D1E90121206800F07CFE2068816841F0BB
:1015C000770109E0CB68D1E90121206800F071FEC4
:1015D0002068816841F48041816011E0CA684968EF
:1015E000206800F01BFF5021206807E016E0CA6861
:1015F0004968206800F023FF6021206800F063FE46
:1016000084F83D50002084F83C0070BDCA684968E9
:10161000206800F003FF40212068EFE722680146C0
:101620001046EBE7704770B50446006801694FF05B
:101630000005C943890715D4C168C943890711D476
:10164000E91E01610120207720688069800720461B
:1016500002D0FFF7E7FF04E000F0C8F8204600F0F2
:101660004AF9257720680169C943490717D4C16839
:10167000C943490713D46FF00401016102202077A8
:101680002068806910F4407F204602D0FFF7CAFF2F
:1016900004E000F0ABF8204600F02DF92577206833
:1016A0000169C943090716D4C168C943090712D49F
:1016B0006FF008010161042020772068C06980076D
:1016C000204602D0FFF7AEFF04E000F08FF820467E
:1016D00000F011F9257720680169C943C90617D4BC
:1016E000C168C943C90613D46FF010010161082015
:1016F00020772068C06910F4407F204602D0FFF7B1
:1017000091FF04E000F072F8204600F0F4F825772D
:1017100020680169C943C90708D1C168C943C9071D
:1017200004D1891E0161204600F002F92068016998
:10173000C943090609D4C168C943090605D46FF035
:10174000800101612046FFF753FE20680169C9430B
:10175000490609D4C168C943490605D46FF0400160
:101760000161204600F00EF920680169C94389062D
:101770000BD4C168C943890607D46FF02001016109
:101780002046BDE87040FFF734BE70BD30B585B06F
:101790000021009101910291039100681049884253
:1017A0001CD11048816941F00401816180690224E3
:1017B00000F0040004904FF48070CDE900040A4D5D
:1017C000694628460394FFF7E9F9A002CDE9000431
:1017D0000320039069462846FFF7E0F905B030BDC5
:1017E000002C01400010024000080140704770B515
:1017F000044690F83C000D4601280DD0012684F8DF
:101800003C60022084F83D0042B1042A18D0082A26
:101810002AD00C2A4DD139E0022070BD206800F09A
:101820005BFD2068816941F0080181612068816960
:1018300021F004018161206881692A69114311E066
:10184000206800F071FD2068816941F400618161C8
:101850002068816921F480618161206881692A6939
:1018600041EA0221816124E0206800F089FD2068BE
:10187000C16941F00801C1612068C16921F004011A
:10188000C1612068C1692A69114311E0206800F034
:10189000A3FD2068C16941F40061C1612068C1698C
:1018A00021F48061C1612068C1692A6941EA02218D
:1018B000C16184F83D60002084F83C0070BD10B523
:1018C000040003D094F83D0010B107E0012010BDE2
:1018D000002084F83C00204600F00CF8022084F838
:1018E0003D00211D206800F0A1FC012084F83D008E
:1018F000002010BD7047704710B5044600680122F3
:1019000000F0CAFC09492068884203D1416C41F4C7
:10191000004141642068816801F00701062903D075
:10192000016841F001010160002010BD002C014060
:1019300070B5124988421FD1114800220121466822
:10194000761C4660C5686D1CC5600469641C046132
:1019500083685B1C8360462E01D142600170642D58
:1019600001D1C2608170B4F57A7F01D10261C1708A
:101970001E2B01D38260417070BD0000A41A0020AC
:10198000701700207047704770B5026804461068F1
:10199000D168536910F00F0F50D003F0010501F426
:1019A000907635435DD0C20705D0CA0503D5E26BFA
:1019B00042F00102E263420705D5DA0703D0E26B89
:1019C00042F00202E263820705D5DA0703D0E26B38
:1019D00042F00402E263020705D5DA0703D0E26BA6
:1019E00042F00802E263E26B002A33D0800604D59D
:1019F000880602D5204600F04AFD20684069E16B68
:101A0000C0F38010090700D428B3204600F031FD50
:101A10002068416949061AD5416921F040014161B8
:101A2000606BA0B11B494163606BFFF76BF8002846
:101A300010D0606B416BBDE870400847830610D53D
:101A40008B060ED52046BDE8704000F020BD204634
:101A5000FFF799FF70BD2046FFF795FF0020E06378
:101A600070BD030606D50B0604D52046BDE87040C0
:101A700000F0B4BD4006F3D54806F1D5D168204644
:101A800021F04001D160202184F8391000F01FF9C5
:101A900070BD00006324000870B5040004D094F801
:101AA0003900002510B106E0012070BD84F83850DF
:101AB000204600F023F8242084F839002068C1680B
:101AC00021F40051C160204600F02CFD206801691E
:101AD00021F4904101612068416921F02A014161AE
:101AE0002068C16841F40051C160E563202084F89A
:101AF000390084F83A00002070BD000070B586B04F
:101B000000240094019402940394314E03683149F7
:101B100002200322304DB3422DD18B6943F4804320
:101B20008B618B6903F4804304938B6943F0080352
:101B30008B618969039201F0080104914021CDE98C
:101B4000001069462846FFF729F88020CDE90004F7
:101B5000694628460294FFF721F82048416841F081
:101B6000E06141F004014160002211462520FFF7A9
:101B70007DF9252028E01A4EB34227D1CB6943F4E2
:101B80008023CB61CB6903F4802304938B6943F0FA
:101B900008038B618969039201F0080104913115F2
:101BA000CDE9001069462846FEF7F8FFF014CDE9AC
:101BB0000004694628460294FEF7F0FF0022114611
:101BC0002720FFF753F92720FFF742F906B070BD31
:101BD0000038014000100240000C014000000140AC
:101BE0000048004090F83A30202B22D1F9B1F2B1F0
:101BF00090F83830012B1CD081628285C28500218B
:101C0000C163222280F83A2080F838100168CA683F
:101C100042F48072CA6001684A6942F001024A6176
:101C20000068C16841F02001C160002070470120B8
:101C3000704702207047000070B5044600680F49E5
:101C40000F4D88420AD1A87900F09AFF0C49012271
:101C5000891D0C48FFF7C6FF0028F7D00A49206805
:101C600088420AD1A87900F033F805490122891D7C
:101C70000648FFF7B7FF0028F7D070BD00480040C6
:101C800000000020641B002000380140241B0020BD
:101C900090F83930202B18D1A9B1A2B190F8383082
:101CA000012B12D001628284C2840021C1632122EF
:101CB00080F8392080F838100068C16841F0800150
:101CC000C1600020704701207047022070477047B4
:101CD00070B5214CA5281FD06189FE2902D34FF68B
:101CE000FF7161811D4A89B25054491C618111788C
:101CF000A5291CD1AA281AD1D078174D18498035AA
:101D00000926B2380B2812D2DFE800F008110C1CAB
:101D100012111711231E21000021E2E7E868FEF7E7
:101D200075FA0DE0A868FEF771FA04E0A67070BDC0
:101D3000A868FEF719FAA860F8E7E868FEF714FA51
:101D4000E860F3E7012000E00320A07070BD0420EC
:101D5000FBE70520F9E700000000002063190020E0
:101D60000000F041FEE7000010B586B000200090B2
:101D70000190029003901648816941F02001816131
:101D8000816901F020010491816941F004018161C0
:101D9000816901F004010491816941F008018161C8
:101DA00080690C4C00F008000490002210212046AD
:101DB000FEF7EBFF1020009001200221CDE9010188
:101DC000039169462046FEF7E9FE06B010BD00000B
:101DD000001002400008014010B596B000240F9496
:101DE00010941194129413941C2168461494FEF7D5
:101DF000B0F9202107A8FEF7ACF92C482A49016068
:101E00004721C0E9011444F61F61C0E9031444618D
:101E10008461FFF73AFB08B1FEF769FE4FF480508A
:101E20000F900FA92148FFF792FB08B1FEF75FFE64
:101E30001E48FFF744FD08B1FEF759FE139413A99D
:101E40001A481494FFF700FB08B1FEF750FE60201B
:101E5000CDE9000402940394049405940022694699
:101E600012480694FFF7C3FC08B1FEF740FE0C22AF
:101E700069460E48FFF7BBFC08B1FEF738FE079431
:101E8000089409944FF400500A94CDE90B4007A937
:101E900006480E94FFF7AEFA08B1FEF728FE034895
:101EA000FFF774FC16B010BD002C0140641A00202E
:101EB00010B586B00024174800940194029403944E
:101EC00004944FF080410594016041F61F41C0E940
:101ED00001140921C0E9031480218161FFF7D5FABB
:101EE00008B1FEF704FE4FF480500090694609489F
:101EF000FFF72DFB08B1FEF7FAFD049404A905488D
:101F00000594FFF7A1FA002801D0FEF7F0FD06B016
:101F100010BD0000A41A002010B586B00024174898
:101F2000009401940294039404941349059401606D
:101F30004721C0E9011444F61F61C0E9031484611C
:101F4000FFF7A3FA08B1FEF7D2FD4FF480500090DE
:101F500069460A48FFF7FBFA08B1FEF7C8FD04948A
:101F600004A906480594FFF76FFA002801D0FEF790
:101F7000BEFD06B010BD000000080040E41A0020BD
:101F80000C4810B50A4901604FF416514160002118
:101F900081600C22C160C0E904128161C161FFF758
:101FA0007BFD002803D0BDE81040FEF7A0BD10BDAA
:101FB00000380140241B00200C4810B50A4901607C
:101FC0004FF4E1314160002181600C22C160C0E921
:101FD00004128161C161FFF75FFD002803D0BDE8F5
:101FE0001040FEF784BD10BD00480040641B002077
:101FF000FEE7704770B50024DDE90456C4608460D4
:1020000000F1100CC4618CE868000180428070BD52
:102010002DE9F041044616460F461046FEF7F6F845
:10202000054660602946E069FEF79EF81649E061C2
:10203000884202DC1549884200D9E16131463846C0
:10204000FEF7E4F81249884201DC8D4201DD0020F0
:10205000E0612846A168FEF7D9F8E669A560A169A4
:10206000FEF7DAF8074630466169FEF7D5F806460E
:1020700028462169FEF7D0F83146FEF775F8394653
:10208000BDE8F041FEF770B80050C3470050C3C729
:102090000000A0412DE9F041044616460F461046C7
:1020A000FEF7B4F8054601466060E069FEF75CF8AB
:1020B000E061D4F814804146FEF7AEF801464FF0D7
:1020C0007E50814201DCE06903E04146FEF7D6F82C
:1020D000E0614146FEF7A0F801461648814203D967
:1020E0004146FEF7CBF8E06131463846FEF78EF800
:1020F0001149884201DC8D4201DD0020E061284663
:10210000A168FEF783F8E669A560A169FEF784F887
:10211000074641463046FEF77FF8064628462169C5
:10212000FEF77AF83146FEF71FF83946BDE8F04170
:10213000FEF71AB8000080BF000020412DE9F041F1
:1021400004461046FEF762F860600546A168FEF797
:102150005DF8E669A560A169FEF75EF807463046BE
:102160006169FEF759F8064628462169FEF754F8DA
:102170003146FDF7F9FF3946BDE8F041FDF7F4BF00
:1021800070477047FEF70CBE30B58FB02821684607
:10219000FDF7DFFF14210AA8FDF7DBFF012108048A
:1021A000CDE900100024029402250491CDE90750E6
:1021B0004FF4E01009906846FEF776FF0F20CDE956
:1021C0000A056802CDE90C4002210AA80E94FEF728
:1021D0007FFE0FB030BD00000D48016841F00101E5
:1021E000016041680B4A1140416001680A4A114090
:1021F0000160016821F480210160416821F4FE0141
:1022000041604FF41F0181600449C00308607047BA
:10221000001002400000FFF8FFFFF6FE08ED00E0AE
:102220000148FFF700BA0000A41A0020F0B50268C8
:10223000164B174C174D4FF08047984205D0B842C7
:1022400003D0A04201D0A84203D122F070064A6810
:102250003243984205D0B84203D0A04201D0A842F0
:1022600003D122F44074CA6822434C6922F08002F0
:10227000224302608A68C2620A688262984201D17F
:102280000969016301214161F0BD0000002C01409A
:10229000000400400008004010B501F01F030121B8
:1022A000046A99408C430462016A9A4011430162B6
:1022B00010BD10B5846842EA032224F47F440A4327
:1022C0002243826010BD826822F070020A4342F00D
:1022D000070181607047000030B5026A22F00102F8
:1022E0000262026A4368846924F073050C682C4317
:1022F00022F002058A682A430A4DA8420BD122F037
:102300000805CA6823F440732A434D6922F0040289
:102310001D438B692B4343608461496841630262BA
:1023200030BD0000002C014030B5026A22F01002DE
:102330000262026A436884690D6824F4E64444EA50
:1023400005248D6822F0200242EA05120B4DA842B6
:102350000ED1CD6822F0800242EA05124D6923F4C5
:10236000406343EA85038D6922F0400243EA850316
:102370004360846149688163026230BD002C014082
:1023800030B5026A22F480720262036A4268C4694C
:1023900023F4007324F073050C682C438D6843EA22
:1023A00005230C4DA8420ED1CD6823F4006343EA07
:1023B00005234D6922F4405242EA05128D6923F447
:1023C000806342EA05124260C4614968C1630362E6
:1023D00030BD0000002C014030B5026A22F480526A
:1023E0000262046A4268C3690D6823F4E64343EA63
:1023F00005238D6824F4005444EA0534064DA842B0
:1024000004D14D6922F4804242EA85124260C361E0
:1024100049680164046230BD002C014010B5036AB4
:10242000046A24F001040462846924F0F00444EA9C
:10243000021423F00A020A438461026210BD10B53F
:10244000036A23F0100303628369046A23F4704370
:1024500043EA023224F0A00343EA011182610162DF
:1024600010BD10B5406A0021C185C184FFF78BFA09
:1024700010BD0168CA6822F49072CA6001684A6996
:1024800022F001024A61202180F83A10704710B50D
:1024900090F83A10222901D0022010BD8168B1F5D0
:1024A000805F11D00169002901681FD0496801F0DF
:1024B0007F03816A4A1C82620B70C18D491E090428
:1024C000090CC18518D02BE00269816A002A0268D4
:1024D000526805D0D2B20A80816A491C8162ECE759
:1024E000C2F308020A80816A891CF7E74A68816A98
:1024F0004B1C83620A70E0E70168CA6822F0200280
:10250000CA600168CA6822F48072CA6001684A69B8
:1025100022F001024A61202180F83A10FFF78CFB7B
:10252000002010BD2DE9F041044600680169E26811
:1025300021F44051114301612169A0680843616998
:1025400008432168CA6841F20C639A430243CA6097
:1025500020684169A26921F44071114341611E491B
:10256000206864253226884202D1FEF757FD01E03B
:10257000FEF744FD00EBC00101EB001160686FF055
:1025800018078000B1FBF0F2B2FBF5F2B1FBF0F3FB
:102590007A4303EB8202B1FBF0F306EB0212B2FBCB
:1025A000F5F2B3FBF5F302F0F00202EB0312B1FB1C
:1025B000F0F3B1FBF0F0B0FBF5F0784303EB8000F3
:1025C00006EB0010B0FBF5F0216800F00F0010449E
:1025D0008860BDE8F08100000038014090F83910B3
:1025E000212901D0022070478168B1F5805F016A1E
:1025F0000BD04A1C0262026809785160C18C491EE6
:102600000904090CC1840ED017E009880268C1F3DF
:102610000801516001690029016A02D0491C016268
:10262000ECE7891CFBE70168CA6822F08002CA60F7
:102630000068C16841F04001C1600020704700009F
:102640000148FFF7A1B90000241B00200148FFF753
:102650009BB90000641B0020FEE70000084910B58C
:10266000884202DC0749884200DA08460649FDF73D
:10267000D0FDFDF781FF054980B20968486310BDB0
:102680000060BB440080F94300603B45641A0020B1
:10269000084910B5884202DC0749884200DA08463A
:1026A0000649FDF7B6FDFDF767FF054980B20968E9
:1026B000086410BD0060BB440080F94300603B45E6
:1026C000641A00200907090E002804DB00F1E0204D
:1026D00080F80014704700F00F0000F1E02080F84F
:1026E000141D704702E008C8121F08C1002AFAD161
:1026F00070477047002001E001C1121F002AFBD182
:1027000070470000014908607047000094170020DE
:102710002DE9F047444D8046894605F18004686FF5
:10272000FDF73EFFD4E91223FDF796FE02460B4665
:10273000FDF795FE06460F46286FFDF731FFD4E9F9
:102740001023FDF789FE02460B46FDF788FE324650
:102750003B46FDF7DDFD00F0B1FAC4E9180106467D
:102760000F4640464946FDF75FFF804630463946F2
:10277000FDF75AFF014642462C48FFF78BFCFDF758
:102780000FFFD4E91A23FDF7C3FD0022284BC4E94B
:102790001A01FDF731FF03D825490020C4E91A01C9
:1027A000D4E91A0100221346FDF70EFF03D8214990
:1027B0000020C4E91A01AA46286FFDF7F1FE06467B
:1027C0001948E56B0F46F03000EBC501D1E9000177
:1027D000D4E91A2390469946FDF741FE32463B461E
:1027E000FDF796FDFDF720FFA060DAF87400FDF715
:1027F000D7FE064610480F4600EBC5014246D1E918
:1028000000014B46FDF72BFE32463B46FDF780FDAF
:10281000FDF70AFF6D1DE563E060B5F5B47F01DBF0
:102820000020E063BDE8F08700000020441800208D
:1028300000C062400000F03F300C002004480178E6
:10284000012901D00020704700210170012070474C
:10285000701700200448C178012901D0002070477A
:102860000021C17001207047701700201CB50026A0
:10287000FEF79EFAB84DE869FDF77EFE84B2A869BE
:10288000FDF77AFE81B2D5E90402CDE900022246C5
:10289000B248EB68FFF7AEFB286BFDF76DFE84B224
:1028A000E86AFDF769FE81B2D5E90902CDE90002C7
:1028B000AA48224620302B6AFFF79CFB686CFDF784
:1028C0005BFE84B2286CFDF757FE81B2D5E90E029B
:1028D000CDE90002A148224640306B6BFFF78AFB2E
:1028E000A86DFDF749FE84B2686DFDF745FE81B223
:1028F000D5E91302CDE90002984822466030AB6C5E
:10290000FFF778FBE86EFDF737FE84B2A86EFDF79F
:1029100033FE81B2D5E91802CDE900028F48224684
:102920008030EB6DFFF766FBFFF72EFCFFF71CFA1C
:10293000FFF752FAFFF740FBFFF722FBFFF7ECFA35
:10294000FFF7B6FA0C218648FEF7D6FF002184482F
:10295000FEF7D2FF8348FEF7E9FD0122A91D824858
:10296000FFF740F90122A91D8048FFF73BF905F167
:102970008004A06AFFF772FEE06AFFF789FEDFF8C5
:10298000DC91DFF8ECB109F1200AB046FFF756FF01
:1029900000287AD02878012802D0002876D0CDE00F
:1029A000A878FDF7B9FFD4E91001FDF73DFE014617
:1029B0006A48A268FFF72CFB2061D4E91201FDF7F9
:1029C00033FE01466548E2682030FFF721FB606175
:1029D000012E0AD1D4E91001FDF726FEA867D4E93B
:1029E0001201FDF721FE0026E867A86FFDF7D8FD6C
:1029F000D4E91023FDF730FDFDF716FE07462060F1
:102A0000E86FFDF7CDFDD4E91223FDF725FDFDF7B5
:102A10000BFE60605148394640302269FFF78EFB5B
:102A2000A0614E48626960306168FFF787FBE06132
:102A3000A068FDF7B5FDD4E91023FDF70DFD0022D8
:102A40005B46FDF7C1FD01D8012700E00027A06823
:102A5000FDF7A6FDD4E91023FDF7FBFC00225B4641
:102A6000FDF7B2FD01D8012000E000200740E0683A
:102A7000FDF796FDD4E91223FDF7EEFC00225B463C
:102A8000FDF7A2FD03D8012002E05BE036E0002064
:102A90000740E068FDF784FDD4E91223FDF7D9FC77
:102AA00000225B46FDF790FD01D8012000E00020E8
:102AB000074207D0C4F81880C4F81C80C9F81C80ED
:102AC000CAF81C80A169A06AFDF74EFB2062074688
:102AD000E169E06AFDF79AFB60623846FFF7BEFDE8
:102AE000606AFFF7D5FDD4E91001FDF79DFDA867E9
:102AF000D4E91201FDF798FDE8671FE0A06AFFF72F
:102B0000ADFDE06AFFF7C4FD1A48A867E8671A49F7
:102B10000020C4E91001C4E91201C9F81C80CAF8F8
:102B20001C80C9F80480C9F80880C9F80C80CAF86C
:102B30000480CAF808800126CAF80C80FDF798FFC7
:102B4000C4F83080FFF786FE00283FF41FAF102145
:102B50000A48FEF713F919E700000020C417002007
:102B6000641A0020A41A0020641B0020241B0020EB
:102B7000000020400000164300C0624000080140F1
:102B80002DE9F04700224B49144652281BD00B89EF
:102B9000FE2B02D34FF6FF730B81474D9BB2884645
:102BA000E8545B1C0B812978522972D14F287ED1C1
:102BB000404F8037386B401C38636878282876D1BE
:102BC0006FF02F060AE00023E6E700BF02EB820168
:102BD00006EB41010844641C82B2A4B22819807833
:102BE0002C28F3D102EB82008008FDF7B8FCC7E97E
:102BF0001001002006E000BF06EB40000844641C02
:102C000080B2A4B2291900EB800009792C29F3D1F4
:102C10008008FDF7A4FCC7E91201B946002007E0CF
:102C200000EB800006EB40000844641C80B2A4B2B4
:102C3000291989792C29F3D188F80000474600200A
:102C400006E000BF06EB40000844641C80B2A4B25A
:102C5000291900EB8000097A2C29F3D18008FDF7AF
:102C60007EFCC9E91401C846002005E006EB4000DF
:102C70000844641C80B2A4B2291900EB8000897A50
:102C80002C29F3D18008FDF76AFCC8E91601002061
:102C900008E00CE000EB800006EB40000844641CF8
:102CA00080B2A4B22919097B2929F3D17870BDE833
:102CB000F087000000000020641800202DE9F0419A
:102CC00006460F46FDF795FD041E0D4618BF012070
:102CD000284320F00040C0F17F6000F1E040C00FC9
:102CE0000ED0301C18BF0120384320F00040C0F146
:102CF0007F6000F1E040C00F04BF0120FFF702FD3C
:102D000020462946BDE8F0812DE9F0472A4D2B4E9B
:102D10000020E97805F1800421B92979491C29713D
:102D2000A66068712979DFF89890264F4FF0020865
:102D3000FF2916D06879052818D0042829D003283F
:102D400030D002281BD0012809D14946A068FDF7E0
:102D50000BFAC4E90206B84201DB85F80580BDE83C
:102D6000F08728710120E8706871EEE74946A06895
:102D7000FDF7FAF9A060B842F1DB85F80580494615
:102D8000E068FDF7F1F9E060B842E8DB0320687124
:102D9000E5E74946E068FDF739FAE060B042DEDC7D
:102DA0000520F4E74946A068FDF730FAA060B0427C
:102DB000D5DC0420EBE700000000002000004842C2
:102DC0000000204100007A432DE9FF5F784C764FE8
:102DD000DFF8D8B1A06B774E1430DFF8DCA1DFF854
:102DE000DC814FF07E55A06364281CD8FDF7B2FB50
:102DF0003946FDF743FA0646A84200DB2E46029903
:102E00000098FDF706FA3146FDF706FA0099FDF73E
:102E1000ABF9A06001990398FDF7F8F93146FDF789
:102E2000FBF9019936E0B946FDF794FB3146FDF711
:102E300021FC34D201215846FDF75EFA5146FDF7D8
:102E400093F90746A06BFDF785FB3946FDF708FCB3
:102E500025D24F46A06BFDF77DFB3146FDF7D6F935
:102E60003946FDF70BFA0646A84200DB2E460299CA
:102E70000E98FDF7CBF93146FDF7CEF90299FDF733
:102E800073F9A06003990F98FDF7C0F93146FDF77B
:102E9000C3F90399FDF768F9E060BDE8FF9F0121E0
:102EA0005846FDF729FA5146FDF75EF90746A06B33
:102EB000FDF750FB3946FDF7DDFB29D24646A06BF6
:102EC000FDF748FB3146FDF7CBFB21D23E46A06B18
:102ED000FDF740FB3146FDF799F94946FDF7CEF97C
:102EE0000646A84200DB2E460E991098FDF78EF993
:102EF0003146FDF791F90E99FDF736F9A0600F996B
:102F00001198FDF783F93146FDF786F90F99C1E76E
:102F10004646A06BFDF71EFB3146FDF7ABFB2FD2FB
:102F200002215846FDF7E8F92549FDF71DF9074646
:102F3000A06BFDF70FFB3946FDF792FB20D2A06B8B
:102F4000FDF708FB3146FDF761F94946FDF796F9B3
:102F50000646A84200DB2E4610990098FDF756F968
:102F60003146FDF759F91099FDF7FEF8A060119967
:102F70000198FDF74BF93146FDF74EF9119989E7B4
:102F800002215846FDF7B8F90D49FDF7EDF8054661
:102F9000A06BFDF7DFFA2946FDF76CFBBFF47DAFB0
:102FA0000020A06379E700000000C8420000484408
:102FB00080000020000061440000484300C0284514
:102FC0000000C843000000000000000001020304EC
:102FD000060708090000000001020304FC2F000896
:102FE0000000002098170000B808000868360008A4
:102FF0009817002010080000F42600084007000081
:103000000001FF00017006B81E853D0001130C434E
:10301000040212C31450050000C04033110812FA14
:10302000280213FA149004CDCCCC50031416430498
:10303000E12001150100081380544400804F441C16
:1030400000041BC0624008712900FF00F03FADFA88
:103050005C6DC5FEEF3FD061BEBC00FBEF3F4DBED7
:10306000D9E6C6F4EF3F4087F9F202ECEF3F8D4519
:10307000D3D9C9E0EF3F33F9669B1BD3EF3F34A2AE
:10308000B437F8C2EF3FAAB706B64AB0EF3F7AC2EC
:10309000120F289BEF3FA4C2D8429083EF3F28B87D
:1030A00058518369EF3F05A3923A014DEF3F3C83AE
:1030B00086FE092EEF3FB1E1E995B20CEF3F7E3578
:1030C0000708E6E8EE3FA67EDE54A4C2EE3F0B46BC
:1030D0002575029AEE3F90149161156FEE3F6FD8FF
:1030E000B628B341EE3F8B1A4CC3F011EE3FC763D5
:1030F000062AE3DFED3F412B306475ABED3FDBF992
:103100007E6ABC74ED3F7958A835CD3BED3F543510
:1031100041D47D00ED3F5019FF3EE3C2EC3F331632
:103120004D672783EC3F371AC05B2041EC3F3EAE32
:103130000D15E3FCEB3F2D5BEB8B84B6EB3F20984A
:10314000A3C7EF6DEB3FFAEDEBC010333923EB3F34
:10315000BC5CC47762D6EA3F486DE2E47E87EA3F12
:10316000BC96900F7A36EA3FDDEA39E97DE3E93F24
:10317000CAE02879758EE93F81785DBF603710100D
:1031800031C342AD69DEE83FDEB06D516683E83F92
:1031900066DAFE959526E83F9D2E8B89CDC7E73FE1
:1031A00048BF7D1D3867E73F698CD651D504E73F9E
:1031B000FF1E5414A5A0E63F0ADCBA9BA73AE63FDF
:1031C0006DE7FBA9F1D2E528203DE53F1FD7868AB0
:1031D00071FEE43F52448655BC91E43FC1FF56B2B4
:1031E0006323E43F4F92AE997CB3E33FE084420413
:1031F0001C42E33F904E5DF92CCFE23F4278B47120
:10320000C45AE23FF701B2441BE13F76FD82DDB0D4
:103210006DE13FDAE1AFC91AF5E03F0938842A359C
:103220007BE03FE0242DE03F4985B1852007DF3F6B
:10323000EBFF1CE6CB0BDE3FAE81AD122C0EDD3F6B
:10324000910A630B410EDC3F5CACA8C1340CDB3F40
:103250000E679A140BDA3FA83AE466B801D93FDD4D
:103260002436389CF9D73F738577B988EFD63FA4C9
:10327000FCA4DAA7E3D53F12C2A38D23D6D43FBB6B
:10328000D573D2FBC6D33FA03715A930B6D23F4E77
:103290000B5EF415A4D13F8654648190D03FF3C8EF
:1032A0001F0C3CF7CE3F091B9E5E29CBCC3F3F74E1
:1032B000417DCB9CCA3F23F8DF4A766CC83FB5A658
:1032C00079C7293AC63FF67F0EF3E505C43FFFCA2A
:1032D0004A9352D0C13FA60F5D50DF32BF3FDF6C33
:1032E00073637AC2BA3FC7F484251E50B63F5DA708
:1032F0009196CADBB13F78978BF84ECCAA8852A141
:10330000085291F05300001052BF2052BF3052BFFC
:103310004052BF5052BF6052BF7052BF8052BF90E8
:1033200052BFA052BFB052BFC052BFD052BFE05236
:10333000BFF056BF0056BF1056BF2056BF3056BF15
:103340004056BF5056BF6056BF7056BF8056BF90A4
:1033500056BFA056BFB056BFC056BFD056BFE056EE
:10336000BFF05ABF005ABF105ABF205ABF305ABFD1
:10337000405ABF505ABF605ABF705ABF805ABF9060
:103380005ABFA05ABFB05ABFC05ABFD05ABFE05AA6
:10339000BFF05EBF00035EBF10035EBF2003558811
:1033A0005FE8BF40035EBF50035EBF60035EBF7057
:1033B000035EBF80035EBF90035EBFA0035EBFB02D
:1033C000035EBFC0035EBFD0035EBFE0035EBFF01D
:1033D000035EBF00045EBF10045EBF20045EBF300A
:1033E000045EBF40045EBF50045EBF60045EBF70F9
:1033F000045EBF80045EBF90045EBFA0045EBFB0E9
:10340000045EBFC0045EBFD0045EBFE00455285F09
:10341000EFBF00055EBF10055EBF20055EBF300533
:103420005EBF40055EBF50055EBF60055EBF7005B4
:103430005EBF80055EBF900555E072F010612061AF
:103440003061406150616061706180619061A06134
:10345000B061C061D061E061F06500651065206514
:103460003065406550656065706580659065A065F4
:10347000B065C065D065E065F069006910792059D4
:103480003069406950796059706980699069A069B4
:10349000B069C069D069E069F06D00036D10036D1B
:1034A00020036D30036D40036D50036D60036D703C
:1034B000036D80036D90036DA0036DB0036DC003B9
:1034C0006DD0036DE0036DF0036D00046D10046DAD
:1034D00020046D30046D40046D50046D60046D7007
:1034E000046D80046D90046DA0046DB0046DC00483
:1034F0006DD0046DE0046DF0046D00056D10056D78
:1035000020056D30056D40056D50056D60056D70D1
:10351000056D80056D90056DB6086DB0056DC00533
:103520006DD0056DE0056DF0056D00066D10066D42
:1035300020066D30066D40066D50066D60066D709C
:10354000066D80066D90066DA0066DB0066DC00616
:103550006DD0066DE0066DF0066D00076D10076D0D
:1035600020076D30076D40076D50076D60076D7067
:10357000076D80076D90076DA0076DB0076DC007E0
:103580006DD0076DE0076DF0076D00086D10086DD8
:1035900020086D30086D40086D50086D60086D7032
:1035A000086D80086D90086DA0086DB0086DC008AA
:1035B0006DD0087DE0085DF0086D00096D10097D93
:1035C00020095D30096D40096D50096D60096D700D
:1035D000096D80096D90096DA0096DB0096DC00974
:1035E0006DD0096DE0096DF0096D000A6D100A6D6E
:1035F000200A6D300A6D400A6D500A6D600A6D70C8
:103600000A6D800A6D900A6DA00A6DB00A6DC00A3D
:103610006DD00A6DE00A6DF00A6D000B6D100B6D38
:10362000200B6D300B6D400B09FFD009FFD009CC8A
:10363000D00DFF100E0DFF100E0DFF100E0DFF1020
:103640000E0DFF100E0DFF100E0DFF100E0DFF10D2
:103650000E0D66100E0D12DB161E01FE166E10E822
:08366000163F24F403170000DB
:04000005080000ED02
:00000001FF
